:020000040800F2
:1000000088080020D5010008BD300008992C0008A0
:10001000B9300008D10C0008D530000800000000FD
:10002000000000000000000000000000C9300008CF
:10003000D50C000800000000C1300008CD300008D9
:10004000EF010008EF010008EF010008EF010008D0
:10005000EF010008C5300008EF010008EF010008BB
:10006000EF010008EF010008EF010008EF010008B0
:10007000EF010008EF010008EF010008EF010008A0
:10008000EF010008EF010008EF010008EF01000890
:10009000EF010008EF010008EF010008EF01000880
:1000A000EF010008EF010008EF010008EF01000870
:1000B000EF010008EF010008EF010008EF01000860
:1000C000EF010008EF010008EF010008EF01000850
:1000D000EF010008EF010008EF010008EF01000840
:1000E000EF010008EF010008EF01000800F002F83E
:1000F00000F060F814A696E8000CB244B344DA4568
:1001000001D100F057F8BAE80F000FA696E83000CA
:10011000A5EB040504EB0607AAEB0704A7F101070A
:100120004FEA15154FEA3414A4F10104AC4201D38F
:1001300000F040F813F0010F18BFFB1A43F0010361
:1001400000F001F8DBE71847EC4A00000C4B000018
:10015000103A24BF78C878C1FAD8520724BF30C8F3
:1001600030C144BF04680C60704700007047000055
:100170000023002400250026103A28BF78C1FBD8B0
:10018000520728BF30C148BF0B607047662904F092
:10019000DE84732900F09F83002070471FB500F0B4
:1001A0009FFB04000020002104F03EF9E0601FBD29
:1001B00010B510BD00F094FC1146FFF7EFFF03F0FF
:1001C000ABF800F0B2FC03B4FFF7F2FF03BC00F0A1
:1001D000F5FC00000948804709480047FEE7FEE7B4
:1001E000FEE7FEE7FEE7FEE7FEE7FEE7FEE7FEE7E7
:1001F00004480549054A064B70470000D130000805
:10020000ED000008880200208808002088040020F3
:10021000880400200FB41CB5084B06AA7B4469462D
:100220000090059800F02DFB04460020694600F080
:100230003BFB20461CBC5DF814FB00008906000057
:1002400070B5044685690068C10601D5302600E016
:100250002026C00707D070BDD4E901213046904761
:10026000206A401C20626D1EF6D570BD70B5044634
:1002700085690078C00707D170BDD4E9012120202D
:100280009047206A401C20626D1EF6D570BD70B587
:100290000C460546012A05D02878800600D5EA6973
:1002A000002302E0012305E05B1C934202D2E05CE4
:1002B0000028F9D1A869E618C01AA861286A18446C
:1002C00028622846FFF7BCFF04E0D5E9012114F8B5
:1002D000010B9047B442F8D32846FFF7C7FF70BD23
:1002E0002DE9F05F894604464FF0000ADFF824B19B
:1002F000FB44C0F820A02046E168884700287DD054
:10030000252806D0D4E901219047206A401C2062AC
:10031000F1E700255F462046E16888472028064629
:1003200007DB312E05D2B81910F8200C08B10543AF
:10033000F1E7A80701D525F00405C4F81CA00027A3
:10034000C4F818A02A2E09D0304604F065F838B356
:1003500004EB8708303EC8F8186019E059F8041B10
:10036000204604EB87029161E1688847012F064629
:1003700018D1E069002820DA25F020051DE0D8F822
:10038000180000EB800006EB40003038C8F8180079
:100390002046E1688847064604F03EF80028EED182
:1003A000012F0AD02E2E08D12046E16888477F1CF5
:1003B0000646022F45F02005C4DBA069002803DAB9
:1003C000404245F00105A061E80701D025F0100585
:1003D000A6B1A6F14100192802D8203645F40065DF
:1003E0004A463146204625604D46FFF7CFFE60B1B4
:1003F000012807D0ED1D25F0070000E007E000F11F
:10040000080978E705F1040975E730467AE7206ABC
:10041000BDE8F09F5E48000010B5431C02E010F8F4
:10042000011B71B18107FAD14FF0013202C88C1A59
:100430008C4314EAC211F9D0C01A0A0603D0C01EB8
:1004400010BDC01A10BD0A0401D0801E10BD0902E3
:10045000FCD0401E10BD7047704770472DE9FF4F1C
:100460000C461E464FF0FF378BB0D2E90001DDF895
:1004700060800A908A46C1F30A5505B93D460021BD
:1004800008464FF00000BAF1000F00F4400005DA12
:1004900000EB80004FF4400101EA50004FEA905910
:1004A000B9F1010F00DDB9460A9850EA4A000ED0B2
:1004B00044F61050A5F2FF3545432F14B8F1000F54
:1004C0001ED07542291E1EDDC9F100021CE0B8F1E4
:1004D000010F4FF0000001D0302103E0F24305E0AE
:1004E0002154401CB042FBDB304600220021215445
:1004F0000B99C1F80880C1E900200FB0BDE8F08F6A
:10050000BD1B6D1CDEE74A4600DA694206A800F012
:1005100071FA06AB93E8070003AB83E80700504687
:100520000A9903F09DFB8DE80700A0F500501F38E5
:1005300000900398002D0ADD42F21F014A4608444C
:10054000002303A90390684603F006FE09E0A0F526
:1005500000504A461F38002303A90390684603F061
:1005600010FE8DE807000004000C03D04FF0FF30B0
:10057000410800E01046B8F1000F03D000220092BD
:1005800015461EE0751E05D400F0AEF930326255F6
:100590006D1EF9D5B3460122084302D000227F1C0C
:1005A00004E02078302801D100227F1E002A09971C
:1005B00084D01DE0112D07DA00F096F93032625533
:1005C0006D1C50EA0102F5D1084302D00098C8B171
:1005D0000EE00021681E05E0235C625C6354225437
:1005E000401E491C8142F7DBAB46A81B401E099008
:1005F000002004F80B000B98099AC0F80880C0E9A5
:10060000002B7AE711264FF0000857E72DE9F04F4D
:1006100088460446D21D22F0070191B0D1E90001BD
:10062000CDE90A0103F0E4FE02460B98C00F01D0A9
:100630002D2007E02068810701D52B2002E0202132
:1006400001EAC000032A099001D0072A05DB03460E
:100650004146204600F08EF90BE12078800601D556
:10066000E06900E00620B8F1650F814606D0B8F1D8
:10067000660F18D0B8F1670F70D131E00020B9F1E2
:10068000110F009001DB112301E009F101030AAA17
:1006900001A90CA8FFF7E2FEDDE90C70002609F1C4
:1006A0000105834647E001204B4600904FF000478C
:1006B0000AAA01A90CA8FFF7D1FEDDE90DB00C993B
:1006C0005D46002610B909F101000D18B9EB0500CF
:1006D00003D4C0F1FF3609F10105A5EB09002BE0B9
:1006E000B9F1010F01DA4FF001090020B9F1110F42
:1006F0000090484601DD112300E003460AAA01A943
:100700000CA8FFF7ABFEDDE90C704D4600268346D2
:10071000207800070AD4AB4500DA5D4601A8012D18
:1007200004DD411911F8011C302907D04F4502DAC8
:1007300017F1040F04DA012082460FE06D1EEEE788
:10074000002F02DCED1B3E4403E0781CA84200DDD4
:100750007D1CB81B00F1010A4FF00047207800070C
:1007600003D4AA4501DB4FF0FF3A0021B7F1004F57
:100770000DF143088DF8431024D002202B23002FC5
:1007800001DA7F422D230A21021EA0F1010000DCC4
:100790005FB197FBF1FC97FBF1F201FB1C7C174664
:1007A0000CF1300C08F801CDEEE7A8F10100037060
:1007B0002188090501D5452100E06521A0F1010846
:1007C00000F8011C09980FA9A1EB0807FF1D00B153
:1007D0000120411901EBEA70A1693844081A401E52
:1007E000A0612078C00602D42046FFF729FD0998B1
:1007F00028B1D4E901219047206A401C206220786A
:10080000C00622D52046FFF71BFD1EE0002E04DBAC
:10081000B34502DD01A8805D00E03020D4E901216C
:100820009047206A401C2062761CAAF101005FEA12
:10083000000A0AD100F054F8C0680168405CD4E9AD
:1008400001219047206A401C2062281EA5F1010565
:10085000DCDC07E0D4E9012118F8010B9047206A9D
:10086000401C2062381EA7F10107F3DC2046FFF789
:10087000FDFC032011B041E601694A1C02610878C1
:10088000704700B58FB0CDE90131002105910549D0
:100890007944CDE9031011466846FFF721FD0FB0FA
:1008A00000BD0000E5FFFFFF0A6802F8010B0A60C7
:1008B000704710B5436913B1AFF3008001E0FFF753
:1008C000E6FC012010BD127800F124010A7000221C
:1008D0004A700122EDE711684FF0FF32E9E70000AE
:1008E000004870473800002030B5B0F10A0271F1BD
:1008F00000034FEA900E4EEA817EB0EB0E0061EBF2
:1009000091014FEA101E4EEA017E10EB0E0041EB02
:1009100011114FEA102E4EEA016E10EB0E0041EB62
:1009200011214FEA104E4EEA014E10EB0E0041EB42
:100930001141401841F100014FEAD00040EA4170F6
:100940004FEAD1014FEA810444EA907410EB80052C
:1009500044EB01046D1944EB0404521BA3414FF016
:10096000000348BF0A3200D530BD401C41F10001F0
:1009700030BD00002DE9F0411F4604460326016802
:10098000072A01F4006004DB08B116A505E016A5EE
:1009900003E008B115A500E015A521F010002060C6
:1009A000A069C01EA0610FB1401EA0612046FFF7E4
:1009B00047FC4FB1D4E9012138469047206A401CDA
:1009C0002062C01C206206E0206AFAE7D4E9012117
:1009D00015F8010B9047761EF8D22046FFF746FC2B
:1009E000BDE8F0814E414E006E616E00494E4600FA
:1009F000696E66002DE9F047814616468AB0354893
:100A000078440DC88DE80D0032487844801C03AC52
:100A10000DC884E80D0041F69B300844372190FB57
:100A2000F1F290FBF1F5A5F1800501FB12041B3CEE
:100A300002D56442012000E00020DFF898A0804643
:100A40000027FA44AAF1BE0A0EE0E0070AD03246B7
:100A5000684607EB470101230AEB810103F091FB94
:100A60008DE8070064107F1C002CEED1194F7F44E5
:100A7000AE3F19E0E80715D007EB04100DF1180A96
:100A800090E80E008AE80E00C068F04201D1981983
:100A900008903246012306A903A803F072FB03ABBA
:100AA00083E807006D10641C002DE3D14FF00103B3
:100AB00032466946B8F1000F03A802D003F04CFBA0
:100AC00001E003F05EFBC9E90001C9F808200AB0A3
:100AD000BDE8F087DC4100000048704718000020A6
:100AE0007546FFF7F9FFAE4605006946534620F00C
:100AF0000700854618B020B5FFF77AFBBDE8204017
:100B00004FF000064FF000074FF000084FF0000BC9
:100B1000AC46ACE8C009ACE8C009ACE8C009ACE838
:100B2000C00921F007018D46704710B50446AFF3A8
:100B300000802046BDE81040FFF745BB4FF0013C68
:100B400050F8042B51F8043B9A4221D1A2EB0C033C
:100B5000934313EACC1317D150F8042B51F8043BFC
:100B60009A4215D1A2EB0C03934313EACC130BD199
:100B700050F8042B51F8043B9A4209D1A2EB0C0324
:100B8000934313EACC13DBD04FF00000704700BF53
:100B9000D01A01BAB1FA81F101F0180122FA01F07C
:100BA000CB40DBB2C0B2C01AC1F120012CFA01F374
:100BB000D11A914311EAC311E6D1704701491820B7
:100BC000ABBEFEE72600020070470000B0B5044649
:100BD00000688168C90709D0816821F0010181603E
:100BE00000F052FD21688968C90701D10020B0BD1D
:100BF000054602E08068C007F8D000F045FD411BC3
:100C000020680329F6D38168C907F3D0A06A40F0B1
:100C10001000A062E06A40F00100E0620120B0BD77
:100C2000B0B582B004460020019021688A68D207DE
:100C30004BD1886840F00100886040F21000C2F299
:100C4000000000684DF68361C4F21B31A0FB010176
:100C5000880C01900198A0B1019801380190019889
:100C600078B1019801380190019850B1019801388C
:100C70000190019828B1019801380190019800284D
:100C8000EAD100F001FD21688968C9071CD1054639
:100C900003E000BF8068C00716D100F0F5FC411BDF
:100CA00020680329F6D38168C907F3D1A06A40F010
:100CB0001000A062E06A40F00100E062002084F8C9
:100CC0002400012002B0B0BD002002B0B0BD000081
:100CD000FEE700007047000070B582B004460020B7
:100CE000019094F82400012802D1022002B070BDC6
:100CF000012084F824002046FFF768FF2046FFF714
:100D00008FFF28B1002184F8241002B070BD00BF0D
:100D10000646A06A41F2021188430230A06240F206
:100D20001000C2F200000568022000F047FFB5FB8A
:100D3000F0F0400001900198A8B100BF019801387F
:100D40000190019878B1019801380190019850B153
:100D5000019801380190019828B10198013801905B
:100D600001980028EAD12068816841F0080181607B
:100D700000F08AFC21688A6812070FD4886840F066
:100D80000400886000F080FC21688968490715D458
:100D900001216FF00302304622E000BF054602E069
:100DA00088680007EAD500F06FFC401B21680B281B
:100DB000F6D388680007F3D50EE000BF054602E0D1
:100DC00080684007E4D500F05FFC411B20680B29D8
:100DD000F6D381684907F3D5012010216FF0120284
:100DE000A36A1A401143A162002184F8241002B0C2
:100DF00070BD000070B581B00022009290F82420F0
:100E0000012A03D10221084601B070BD4A680123BE
:100E1000062A02EB820E80F8243007D8D0F800C0F2
:100E20006FF004030CF134060CE000BFD0F800C0F2
:100E30000C2A87BF0CF12C066FF040030CF1300632
:100E40006FF022030EEB03021F23346803FA02F54E
:100E50000B6824EA050503FA02F22A433260092BE3
:100E600003EB43021AD9DCF80C601E3A07258968A7
:100E70009540AE43914023F001023143102ACCF853
:100E80000C1015D142F20041C4F201018C4517D07B
:100E9000816A41F02001816201210AE0DCF8103012
:100EA000072689689640B34391401943CCF8101047
:100EB0000021002280F82420084601B070BD00BF48
:100EC00089680902F4D4DCF80810102B41F4000101
:100ED000CCF80810ECD140F21001C2F20001096810
:100EE0004DF68362C4F21B32A1FB0212910C01EB9E
:100EF00081014900009100990029D9D00099013958
:100F0000009100990029D3D00099013900910099EE
:100F10000029CDD000990139009100990029C7D04E
:100F2000009901390091009900294FF00001E5D1A5
:100F3000BFE700000068C06C70470000002804BFD5
:100F400001207047B0B50446806A28B121688868DE
:100F5000C0070CD115E000BF0020E06284F8240037
:100F6000204600F097F821688868C00709D0886893
:100F700020F00100886000F087FB21688A68D207B2
:100F800026D1A06AC0063AD4A06A41F20212904368
:100F90000230A062E069D4E9013240EA030C531E3A
:100FA000B3FA83F35D091346B2F5807F18BF2B02B5
:100FB000207D257B01284CEA45002CD135B3A56A5C
:100FC00045F02005A562E56A45F00105E56222E0ED
:100FD000054602E08868C007D3D000F055FB401BEF
:100FE00021680328F6D38868C007F3D0A06A40F0D0
:100FF0001000A062E06A40F00100E062A06AA06A0E
:1010000040F01000A0620120B0BD00BFA56903EB55
:101010004533A3F5C0534D68B2F5807F25F469458B
:1010200043EA05034B608B684FF2FD75CFF6E1751F
:1010300003EA050343EA00038B6001D0012A07D1CC
:1010400022690023CFF6F07303EB025201E000BFE8
:101050000022CB6A23F470031A43CA62896840F6FF
:10106000FE62CFF61F721140814207D10020E0627C
:10107000A16A012262F30101A162B0BDA06A40F041
:10108000100020F00200A062E06A40F00100E0627F
:101090000120B0BD80B586B0014640F60000C4F224
:1010A0000100096800F5E05291424FF00001CDE9DE
:1010B0000411CDE9021101D006B080BD41F2180142
:1010C000C4F202010A6842F400720A600A6802F47B
:1010D00000720192019A0A6842F004020A600968EB
:1010E00001F00401019101990321CDE9021102A946
:1010F00000F0B6F906B080BD2DE9F04182B00027BE
:101100000D460446019700F0BFFA21688A68D205AF
:1011100044D406464868C00503D4C86A10F4700F6A
:1011200046D040F21000C2F20000076842F2924836
:101130000220C1F2492800F041FD216844F6241341
:101140000A69B7FBF0F0C2F292431A4206D1CA68AC
:1011500044F62413C0F292031A425BD00A6912EAE1
:10116000080F07D1CA6842F29243C0F249031A42FB
:1011700000F0C0800A6949F24923C0F224031A42F0
:101180004FF0FC0254D1CF681F4208BF5422019B8C
:1011900002FB00F7BB4250D3C3E000BFA06A40F09F
:1011A0002000A06284F82470012002B0BDE8F08124
:1011B0000868800700F1B580681C00F0A880FDB9C0
:1011C0000868800770D50868800700F1AA80086861
:1011D000800769D50868800700F1A3800868800748
:1011E00062D50868800700F19C80086880075BD59D
:1011F00008688007E4D594E00868800700F19180D2
:1012000000F042FA801B2168A842F5D908688007DF
:10121000F2D449E00A6912EA080F4FF0290207D117
:10122000CB6842F29247C0F249073B4208BF142202
:10123000019B02FB00F7BB4273D2681C52D05DBB1E
:101240000198B84230D30198013001900198B8421A
:1012500067D20198B84227D30198013001900198D4
:10126000B8425ED20198B8421ED301980130019075
:101270000198B84255D20198B84215D3019801306F
:1012800001900198B842DBD34BE000BF01980130D8
:1012900001900198B84235D200F0F6F9801BA842BF
:1012A000F4D90198B842F1D2A06A40F00400A062DB
:1012B000002084F82400032002B0BDE8F08100BFC4
:1012C0000198013001900198B8422AD2019801306A
:1012D00001900198B84224D2019801300190019800
:1012E000B8421ED20198013001900198B842E7D36C
:1012F00017E000BF5422019B02FB00F7BB429CD3C6
:101300000FE000BF21680CE00868800709D4086876
:10131000800706D4086880075CBF08685FEA8070B1
:10132000F2D56FF012000860A06A40F40070A0626D
:10133000886800F46020B0F5602F01D1207B18B1DF
:10134000002002B0BDE8F081A06A20F48070A062A5
:10135000A06AC004F4D4A06A40F00100A06200209A
:1013600002B0BDE8F081000010B5044690F82400FA
:10137000012804BF022010BD012084F8240020466B
:10138000FFF74EFC20B1002084F82400012010BD9E
:1013900042F2044C2068A16AC4F2010C40F201320E
:1013A00091430CF57F7201F580719042A16229D0C2
:1013B000A16A21F48011A1624168490504D5A16A9E
:1013C000012363F30D31A162A16A0023C9044FF028
:1013D000000144BFE16A21F00601E1626FF0020101
:1013E00084F824300160816801F46021B1F5602F38
:1013F0001BD1904214D0816841F4A001816000208B
:1014000010BD00BFDCF8001011F4702FD0D0A16A1D
:1014100041F48011A162DCF800104905CFD4D3E774
:10142000DCF8001011F4702FE5D0816841F48011D0
:101430008160002010BD0000B0B5044600F024F922
:10144000054640F20800C2F200000078611C18BF97
:10145000044400BF00F018F9401BA042FAD3B0BD0D
:101460002DE9F04F82B00E68002E00F0FD8041F2B1
:101470000042C4F20102042340F2004E904208BF31
:1014800003234FF6FF7CC4F2010E009300240123D6
:10149000C1F2100C4FF0000A4FF000094BE000BF02
:1014A00041F20002C4F20102009F904208BF0227ED
:1014B00004F00C030F229A402BEA020207FA03F30E
:1014C0004FEA9A051A4346F825204E6840F20C452B
:1014D000F202DEF8082054BF22EA080242EA0802BB
:1014E000C4F20105CEF808202A68B30254BF22EAEC
:1014F000080242EA08022A60B303DEF8042054BF5F
:1015000022EA080242EA0802F303CEF80420DEF8D9
:1015100000204FF0010354BF22EA080242EA080209
:10152000CEF800200E680AF1010A36FA0AF204F138
:10153000040400F0998003FA0AFB16EA0B08F1D0C4
:101540004E68664512DC122E56D8DFE806F0350BE1
:101550004D4955555555555555555555555555455F
:10156000510000BFD1F80C9046E000BF4FF6FF726B
:10157000C1F2210296420FDC0022C1F21102964212
:101580001AD00022C1F21202964215D00022C1F2F6
:101590002102964210D02FE00022C1F22202964290
:1015A0000AD00022C1F23102964205D00022C1F2D7
:1015B0003202964220D100BF8A684AB1012A14BF84
:1015C000C0F814B0C0F810B04FF0080914E000BF24
:1015D0004FF0040910E000BFCA6802F104090BE0F3
:1015E0004FF0000908E000BFCA6802F1080903E0F3
:1015F000CA6802F10C0900BF02462646B8F5807F92
:1016000024BF0432203E17680F25B54027EA0505A0
:1016100009FA06F635431560CA79D2067FF582AF1E
:1016200041F21803C4F202031A68AEF57E7642F066
:1016300001021A601A6802F001020192019A2AF06E
:10164000030256F802B040F60002C4F201029042D2
:1016500008D040F60042C4F2010290427FF420AF6D
:10166000012725E7002723E702B0BDE8F08F00003F
:101670008068084018BF012070470000002A08BF9A
:10168000090401617047000040F28020C2F20000AE
:1016900000687047002804BF01207047F0B581B092
:1016A000044690F83D0028B9002084F83C0020460C
:1016B00000F090F9242084F83D002068016821F0B2
:1016C00001010160016841F400410160016821F4F9
:1016D0000041016000F04EFC636848F2A16CC0F26A
:1016E000010C40F60011C0F23D0163453CBF48F2D9
:1016F0008041C0F21E01884202D2012001B0F0BD3B
:101700004DF68361C4F21B31A0FB01122168970CD6
:10171000D1F804E04FF496762EF03F0545EA924565
:101720004D60774348F638160D6AC0F24106A7FBB4
:10173000067625F03F07634538BF960C721C3A4386
:101740000A62CA6948F2A0664CF6FF77C0F2010649
:10175000B34222EA07020BD801385B00B0FBF3F07A
:1017600001306FF31F30042898BF04201BE000BF36
:10177000A768013857B119277B43B0FBF3F001305C
:101780006FF31F3070B100F5804007E003EB4303B7
:10179000B0FBF3F001306FF31F3018B100F50040DB
:1017A00001E000BF01201043C8610868D4E90723A5
:1017B00020F0C000104318430860886848F2FF32E8
:1017C00004F10C0790438CCF18431043A66988603E
:1017D000C86820F0FF0038433043C860086840F014
:1017E0000100086000202021206484F83D1020635F
:1017F00084F83E0001B0F0BD2DE9F04383B01E46F1
:10180000174689460446FFF73FFF94F83D1020290C
:1018100024D10546206800BF816989071AD5FFF7E2
:1018200033FF411B20681A29F6D381698907F3D554
:1018300000202021206384F83D1084F83E00216CB4
:1018400041F02001216484F83C00022003B0BDE88F
:10185000F08300BF94F83C10012903D1022003B0AB
:10186000BDE8F083012184F83C100168C90703D169
:10187000016841F001010160016840F2020821F4B1
:1018800000610160212184F83D10102184F83E1090
:101890000021216467626685618DC0F2010821859F
:1018A000A8F10211E162E16A0A9E11F5803F18BFBA
:1018B00001291DD1016841F48071016020464FF07B
:1018C000011100223346009501F046FA50B120681C
:1018D0000068C00544BF4FF400702064012003B0CD
:1018E000BDE8F0832069B0F5804F07D1FE2015E0F8
:1018F0000829DFD0216B1229DCD0DFE7062000EABF
:10190000D9102168F030086108F1060120463246FE
:101910002B4601F007FB0028E0D1FF20216800EAF8
:10192000090008612046414632462B4601F0FAFA8A
:101930000028D3D10020029020684169029180697B
:101940000290029806E000BF204631462A4601F088
:10195000A5F918BB208D68B3204631462A4601F010
:101960004DFBD8B9606A2168024612F8013B0B6151
:101970006262628D013A6285228D531E23854F6912
:101980007F07E1D51B04DFD0437802300B61606232
:10199000608D01386085901E2085D5E7206C042875
:1019A0009CD12068016841F400710160012003B0FE
:1019B000BDE8F0832068016841F4007101602020D7
:1019C00084F83D00002084F83E0084F83C0003B019
:1019D000BDE8F08310B586B0016845F20040C4F25E
:1019E000000081424FF00001CDE90411CDE9021160
:1019F00002D006B010BD00BF41F21804C4F20204C8
:101A0000216800F5384041F008012160216801F0AB
:101A1000080101910199C021029112210391032132
:101A2000059102A9FFF71CFD606840F4001060609A
:101A3000606800F400100190019806B010BD00002D
:101A400040F2080040F28021C2F20000C2F2000120
:101A500000780A68104408607047000080B542F2C0
:101A60000000C4F20200016841F01001016003208F
:101A700000F094F80F2000F005F800F027F800209F
:101A800080BD000070B540F20806C2F2000640F2C8
:101A900010013278C2F200014FF47A730968B3FB87
:101AA000F2F20446B1FBF2F1084600F08BFC0F2C79
:101AB0004FF0010508D838B94FF0FF302146002219
:101AC000002500F03FF87460284670BD80B582B0F4
:101AD00041F21800C4F202000168002241F0010145
:101AE0000160016801F0010101910199416841F033
:101AF000805141604068002100F0805000900098C3
:101B0000052000F01FF8052000F00AF80420C4F2B8
:101B100001000168042262F31A61016002B080BD15
:101B2000002848BF704700F01F01012202FA01F1AE
:101B30001C2202EAD0004EF20012CEF200028150C6
:101B40007047000010B54EF60C5CCEF2000CDCF8CD
:101B50000030C3F3022E8EF00704042C28BF0424A7
:101B6000BEF103034FF0FF3E0EFA04F438BF00232A
:101B7000A14399400EFA03F39A43114300F00F0278
:101B800000F160430901043A03F56443624400280C
:101B900048BF02F10C03197010BD00004EF60C5145
:101BA000CEF200010A684FF6FF031A4060F30A22E2
:101BB00042F0806040F0FD7008607047012821D03D
:101BC00002280DD0102808D141F20401C4F202010C
:101BD0000A6851F8040CC00134D40020704700BFDB
:101BE00080B500F0DBF941F20401C4F2020109689A
:101BF0000222C1F3813102EB4101B0FBF1F0BDE8FB
:101C00008040704741F20400C4F20200C16940F212
:101C100002320A40B2F5817F04BF4FF400407047A2
:101C200001F44071B1F5407F18D0B1F5007F1CBFC1
:101C300000207047006A49F64041800701EAE070E1
:101C4000704700BFC2F3834015A3185CD2030DD4C4
:101C500040F60012C0F23D02504313E050F8040C6D
:101C60004FF22441800301EAE07070470A6810A334
:101C7000C2F340429A5C41F20023C0F27A03B3FB04
:101C8000F2F250430968490248BF70474AF6AB2157
:101C90004000CAF6AA21A0FB01014808704700BF16
:101CA00002030405060708090A0B0C0D0E0F10109D
:101CB000010200002DE9F04182B00446007841F2B3
:101CC0001C06C007C4F202064AD030685FEAC008AA
:101CD00008D4306840F080503060306800F08050A8
:101CE0000190019847F20007C4F200073868C00568
:101CF00012D4386840F480703860FFF7C5FC0546A0
:101D00003868C00508D4FFF7BFFC401B6428F7D92A
:101D1000032002B0BDE8F081706810F4407012D06A
:101D2000616801F4407188420DD0706840F2404211
:101D3000C4F24222012320F4407113600023C00743
:101D40001360716026D17068616820F440700843A8
:101D5000B8F1000F706003D4306820F0805030601C
:101D60002068810707D556F8181CA26821F4404165
:101D7000114346F8181CC00607D556F8180CE16840
:101D800020F48000084346F8180C002002B0BDE89B
:101D9000F08100BFFFF778FC054641F2883700BFAD
:101DA00070688007CFD4FFF76FFC401BB8424FF03C
:101DB0000300F5D9EAE70000002804BF01207047BE
:101DC0002DE9F04381B042F20008C4F20208044653
:101DD000D8F800000D4600F0070081420CD9D8F871
:101DE000000020F007002843C8F80000D8F80000E1
:101DF00000F00700A8426CD1206841F20409810775
:101E0000C4F2020917D5410705D5D9F8001041F4ED
:101E1000E061C9F80010010705D5D9F8001041F4B8
:101E20006051C9F80010D9F80010A26821F0F00143
:101E30001143C9F80010C00742D1D8F8000000F0E3
:101E4000070085420CD2D8F8000020F00700284394
:101E5000C8F80000D8F8000000F00700A84238D108
:101E60002068410707D5D9F80010E26821F4E06145
:101E70001143C9F80010000708D5D9F800002169FE
:101E800020F4605040EAC100C9F80000D9F80020F1
:101E900002F00C00082841F20020C0F27A004DD177
:101EA00044F61243C2F38341C0F60003595CD203E7
:101EB00038D440F60010C0F23D0048433EE000BF79
:101EC000606859F8041C022808D0012826D189032B
:101ED00006D4012001B0BDE8F08300BF8901F8D528
:101EE000D9F8001021F003010843C9F80000FFF7FA
:101EF000CBFB064641F28837D9F80000616800F054
:101F00000C00B0EB810F98D0FFF7BEFB801BB842EE
:101F1000F2D9032001B0BDE8F08300BF8907D8D50E
:101F2000DEE700BFD9F8002044F61043C2F3404278
:101F3000C0F600039A5C4843B0FBF2F0D9F80010F9
:101F400044F6F832C1F30311C0F60002515C40F2CE
:101F5000100220FA01F140F20C00C2F20000006809
:101F6000C2F200021160FFF78DFD002001B0BDE854
:101F7000F083000040F2100041F20401C2F20000C0
:101F8000C4F202010068096844F60842C1F3022164
:101F9000C0F60002515CC8407047000040F21000DB
:101FA00041F20401C2F20000C4F2020100680968B3
:101FB00044F60842C1F3C221C0F60002515CC84099
:101FC00070470000002804BF012070472DE9F04150
:101FD00082B00446007841F20006C007C4F202064F
:101FE0000CD0706800F00C00042840F0818030684C
:101FF000800303D56068002800F0468120788007C0
:102000001BD5706810F00C0F09D0706800F00C0040
:10201000082840F087807068C00300F18380306832
:10202000800703D52069012840F02E81306861695E
:1020300020F0F80040EAC10030602078000713D497
:10204000207840072CD4E569002D00F018817068D5
:1020500000F00C00082840F0A780012D40F004811A
:10206000012002B0BDE8F081A069002800F0848062
:102070000020C4F242200121C0F88014FFF704FBC5
:10208000054600BF706A800700F1B280FFF7FCFAD6
:10209000401B0228F6D9032002B0BDE8F08100BF42
:1020A000F0695FEAC00808D4F06940F08050F06140
:1020B000F06900F080500090009847F20007C4F2E9
:1020C00000073868C00549D4386840F4807038602B
:1020D000FFF7DAFA054600BF3868C0053ED4FFF7BF
:1020E000D3FA401B6428F7D9032002B0BDE8F08181
:1020F000706800F00C00082803D17068C0033FF539
:1021000076AF61683068002900F00C81B1F5A02F2E
:1021100000F00081B1F5803F40F01A8140F480303A
:102120001CE100BF2069002840F20000C4F24220F8
:1021300000F0888001210160FFF7A6FA054600BF84
:10214000306880073FF572AFFFF79EFA401B022808
:10215000F6D9032002B0BDE8F08100BFE168306A23
:10216000002900F09D80052900F09280012940F0AF
:10217000AF8040F00100B1E00020C4F24220002115
:10218000C0F88014FFF780FA054600BF706A800728
:102190007FF556AFFFF778FA401B0228F6D90320E7
:1021A00002B0BDE8F08100BF0027C4F24227002042
:1021B0003866FFF769FA022D05460DD130688001B7
:1021C00040F1DE80FFF760FA401B02284FF0030069
:1021D000F4D902B0BDE8F081306880014FD5FFF737
:1021E00053FA401B02284FF00300F5D9F1E700BF76
:1021F00040F21000C2F20000006844F6D351C1F270
:102200006201A0FB0101480A019000BF00BF0198D4
:10221000411E002801913FF413AF00BF0198411EF9
:10222000002801913FF40CAF00BF0198411E002827
:1022300001913FF405AF00BF0198411E00280191B4
:10224000E4D1FDE600210160FFF71EFA054600BF5C
:10225000306880077FF5F1AEFFF716FA401B0228C1
:102260004FF00300F4D9B4E77068216A00F48032BB
:102270008A4209D1616A00F47010884204D10020BA
:1022800002B0BDE8F08100BF012002B0BDE8F081DE
:1022900040F004003062306A40F001001EE000BFF0
:1022A00020F001003062306A20F004003062FFF755
:1022B000EBF9054641F28837306A800720D5FFF7F1
:1022C000E3F9401BB8424FF00300F5D981E700BFA6
:1022D00020F001003062306A20F004003062FFF725
:1022E000D3F9054641F28837306A800708D4FFF7F2
:1022F000CBF9401BB842F7D9032002B0BDE8F0810A
:10230000B8F1000F3FF59FAEF06920F08050F0610A
:1023100099E600BF40F480203060306840F480309F
:102320001CE000BF20F480303060306820F4802052
:102330003060FFF7A9F90546306880037FF55EAE8F
:10234000FFF7A2F9401B64284FF00300F4D940E7DF
:1023500020F480303060306820F480203060FFF757
:1023600093F90546306880033FF548AEFFF78CF9D6
:10237000401B6428F6D9032002B0BDE8F08100BFFD
:10238000206AB0F5803F05D17168A26821F4003160
:10239000114371607168626A21F47411114308433A
:1023A000706001203866FFF76FF9044630688001DD
:1023B0003FF565AFFFF768F9001B02284FF00300F7
:1023C000F4D906E7411E0020B0EB116F1CBF0120BD
:1023D00070474EF21002CEF2000251604EF62351C9
:1023E000CEF20001F0230B7007219060116070475E
:1023F00090F83C20012A04BF02207047B0B501F1DB
:1024000008053CCDD1E900CE23F47C5322F4705270
:102410001A432EF4F0431A432CF4E0431A4324F4F5
:10242000C0431A432A43C96922F480420368114316
:102430005964002180F83C100020B0BD90F83C2089
:10244000012A4FF0020236D010B580F83D20026814
:10245000D2F804E0D2F808C00C682EF070032343D1
:1024600040F2FF74C4F20004A24253600ADCB2F1ED
:10247000804F13D040F20043C4F200039A420DD0C3
:1024800011E000BF42F60043C4F201039A4205D0B6
:1024900040F60003C4F200039A4204D149682CF0CC
:1024A0008003194391600121002280F83D1080F8DB
:1024B0003C20BDE8104010467047000080B586B053
:1024C00000680021B0F1804FCDE904110391029121
:1024D00022D042F60041C4F20101884246D141F2C5
:1024E0001800C4F20200016841F0040101600068B4
:1024F00002A900F00400019001984FF4807002904E
:1025000002200390059040F60000C4F20100FEF79F
:10251000A7FF06B080BD00BF41F21800C4F2020060
:10252000016841F008010160006802A900F008009C
:10253000019001984FF48060029002200390059072
:1025400040F60000C4F2010000F58060FEF788FF4D
:102550000420C4F2010001684FF6FF42CFF6FF02EB
:10256000114041F0E06141F40071016006B080BDAE
:1025700090F83C30012B04BF022070474FEAB202B2
:10258000032A00F2F1802DE9F043DFE802F003A511
:102590003B7500BF036842F600461D6A1A6AC4F222
:1025A000010622F001021A621A465C6852F818CF3E
:1025B000B3428E68D1F800E025F0020545EA060531
:1025C0000CD1CE68D1E9057824F4407425F00C05CF
:1025D00026F004063C43354344EA08042CF0730714
:1025E00047EA0E075C609F614F6809695F631D627F
:1025F0009F6947F008079F619F6927F004079F6163
:10260000A6E000BF036842F600461D6A1A6AC4F2DB
:10261000010622F480721A621A46D3F804C052F8F6
:102620001CEFB3428E680C6825F4007545EA062558
:102630000FD1CE68D1E90598360240F2FF4725F464
:102640004065BE4335432CF4405748EA090647EA43
:10265000061C2EF073072743C3F804C0DF614F68E0
:102660000969DF631D62DF6947F00807DF61DF6921
:1026700027F00407DF616BE0036842F60047D3F8F8
:1026800020C01A6AC4F2010722F480521A621A4664
:102690005C6852F81C5FD1F800E08E68BB4204D140
:1026A0004F6924F4804444EA87142CF4005747EA25
:1026B000063725F4E64646EA0E265C60DE614E6883
:1026C00009691E641F62DF6947F40067DF61DF6923
:1026D00027F48067DF613AE0036842F600461D6A2E
:1026E0001A6AC4F2010622F010021A621A46D3F8DE
:1026F00004C052F8184FB3428E68D1F800E025F0BC
:10270000200545EA06150FD1CE68D1E905986FF08E
:10271000400725F0C00507EA061635432CF440674C
:1027200048EA090647EA860C24F4E64444EA0E2700
:10273000C3F804C09F614F6809699F631D629F6968
:1027400047F400679F619F6927F480679F610902D2
:102750001368194311600021BDE8F043002280F89E
:102760003C200846704700BF0121002280F83C2031
:1027700008467047002804BF0120704710B590F844
:102780003D1031B9002180F83C10044600F070F88B
:102790002046022180F83D10016840F2FF740B686A
:1027A000C4F2000442F6004CA142C4F2010C15DC54
:1027B000B1F1804F1AD040F20042C4F200029142BF
:1027C00014D0A14218DCB1F1804F1DD040F200427C
:1027D000C4F20002914217D01AE000BF614505D053
:1027E00040F60002C4F200029142EAD1826823F06E
:1027F00070031343A142E6DD614505D040F60002B7
:10280000C4F20002914203D1026923F440731343DE
:10281000846923F08002D0F804E0C3682243614554
:102820000A60CB62C1F828E002D14269CCF83020BE
:1028300001224A610B69DB0703D00B6923F0010316
:102840000B6180F8462080F83E2080F83F2080F819
:10285000402080F8412080F8422080F8432080F812
:10286000442080F8452080F83D20002010BD000065
:1028700082B00068B0F1804F14D042F60041C4F23B
:10288000010188421BD141F21800C4F20200016824
:1028900041F400610160006800F40060019001985B
:1028A00002B0704741F21800C4F20200416841F0E2
:1028B00001014160406800F001000090009802B002
:1028C00070470000C1B1042908D0082914BF412273
:1028D0004022825C012A05D016E000BF3F22825CC4
:1028E000012A11D10222082910D0042914BF80F82E
:1028F000412080F83F200BE090F83E20012A03D1D0
:10290000022280F83E2003E00120704780F840203A
:10291000006801F01F010122036A8A4023EA0201D4
:102920000162036A42F64441C4F201011A43A1F173
:102930004403984202620FD040F2FF71C4F20001DA
:10294000884213DCB0F1804F1CD040F20041C4F249
:102950000001884216D01CE00A6842F400420A6076
:1029600040F2FF71C4F200018842EBDD42F6004103
:10297000C4F20101884205D040F60001C4F2000112
:10298000884206D1816801F00701062904BF0020B2
:102990007047016841F001010160002070470000AC
:1029A000002804BF0120704710B5044690F841008C
:1029B00028B9002084F84000204600F063F8242065
:1029C00084F841002068D4E90212C36823F400535C
:1029D000C360036923F440531A430261D4E904231A
:1029E0001143C268194341F20C639A431143C16019
:1029F0004169A26921F44071114343F60002C4F217
:102A000001029042416103D0FFF7B4FA02E000BF37
:102A1000FFF7C4FAD4E90023192148439900B0FB19
:102A2000F1F048F21F5CC5F2EB1CA0FB0C314FF635
:102A30009C734909C0F6FF7301FB0300322303EBCB
:102A40000010A0FB0C03F02000EA531000EB011073
:102A5000C3F34311084490601069202120F4904092
:102A60001061506920F02A005061D06840F4005095
:102A7000D0600020606484F8411084F842106063E4
:102A800010BD000070B586B040F60004C4F2010429
:102A9000006804F54051002688420596CDE903669A
:102AA000029601D006B070BD41F21800C4F20200D7
:102AB000016802AD41F480410160016801F4804188
:102AC00001910199016841F0040101600068294603
:102AD00000F00400019001984FF400700290022071
:102AE0000390032005902046FEF7BAFC4FF4806067
:102AF000CDE90206204629460496FEF7B1FC06B051
:102B000070BD00002DE9F04381B0044690F841000B
:102B1000202809D100294FF0010018BF002A07D151
:102B200001B0BDE8F08300BF022001B0BDE8F08332
:102B30000020606421201D460E4684F8410017469F
:102B4000FEF7A2FDA784E784A1688146B1F5805F06
:102B500002D1206900285DD037460020E28C216830
:102B6000002A5DD06A1C24D0002D4AD0804600BFC8
:102B70000868000608D4FEF787FDA0EB0900A8420C
:102B80007AD82168C868F3E717B117F8010B04E099
:102B900038F8020B00276FF35F204860E08C0138A3
:102BA000E084E08C0028E3D13AE000BF0A68120616
:102BB00009D40A68120606D40A6812065CBF0A68BD
:102BC0005FEA0262F2D51FB117F8012B05E000BFE2
:102BD00030F8022B00276FF35F224A60E28C013A43
:102BE000E284E28C002AE4D11AE000BF30F8022B24
:102BF00000276FF35F224A60E28C013AE284E28CA4
:102C000072B10A68120635D5002FEFD017F8012BE4
:102C1000F1E700BF00273046E28C2168002AA1D1ED
:102C2000086840061ED42DB3681C14D108684006FD
:102C30002AD40868400627D40868400624D40868C7
:102C400040064FF00000F1D50DE000BF2068C168DC
:102C50000068400618D4FEF717FDA0EB0900A84253
:102C6000F4D909E00020202184F8411001B0BDE82A
:102C7000F08300BFFEF708FD0320202184F84110F7
:102C800001B0BDE8F08300BF0020202184F841108E
:102C900001B0BDE8F0830000FEE7000070B50368F6
:102CA000044653F8140F400711D40E46481C29D08F
:102CB00086BB00BF1868400527D4FEF7E5FC2368F3
:102CC00053F8140F400737D518684007F2D5002095
:102CD00070BD00BF18684007F9D41868400514D4C7
:102CE00018684007F3D4186840050ED418684007E8
:102CF000EDD41868400508D4186840074FF000006C
:102D000048BF70BD18684005E4D56FF48060186056
:102D1000042012E0154603E053F8140F4007D6D400
:102D200018684005F1D4FEF7AFFC401B2368B042A1
:102D3000F2D958694007EFD42020002120222163D6
:102D400084F83D2084F83E10226C1043206401205A
:102D500084F83C1070BD00002DE9F0410546006884
:102D60001E46144601F47F0201338FB242D0DDF8D3
:102D70001880B2F5803F40F0878040693840C01B22
:102D8000B0FA80F04009844240F0C8804EB924E097
:102D900040693840C01BB0FA80F04009844240F0DE
:102DA000BD80FEF771FCA0EB08012868B142EFD9A5
:102DB00041693940C91BB1FA81F149098C42E7D117
:102DC0009BE000BF40693840C01BB0FA80F040096A
:102DD00084424FF0000040F0A280FEF755FC2868C6
:102DE00041693940C91BB1FA81F149098C42E9D1E5
:102DF00083E000BFB2F5803F24D100BF4169394074
:102E0000C91BB1FA81F149098C4240F087804169C0
:102E10003940C91BB1FA81F149098C4240F07E80EA
:102E200041693940C91BB1FA81F149098C4275D118
:102E300041693940C91BB1FA81F149098C42DDD0A1
:102E40006CE000BF81693940C91BB1FA81F14909C1
:102E50008C4263D181693940C91BB1FA81F14909BA
:102E60008C425BD181693940C91BB1FA81F14909B2
:102E70008C4253D181693940C91BB1FA81F14909AA
:102E80008C42DFD04AE000BF80693840C01BB0FAF6
:102E900080F04009844241D146B923E0806938403E
:102EA000C01BB0FA80F04009844237D1FEF7ECFB3A
:102EB000A0EB08012868B142F0D981693940C91BEB
:102EC000B1FA81F149098C42E8D116E080693840B5
:102ED000C01BB0FA80F0400984424FF0000018BFD8
:102EE000BDE8F081FEF7D0FB286881693940C91B35
:102EF000B1FA81F149098C42E8D1002020212863F0
:102F000085F83D1085F83E00296C41F020012964C8
:102F100085F83C000120BDE8F08100BF0020BDE83D
:102F2000F0810000F0B581B0044600681D46436999
:102F30008FB203EA0701B94202D1002001B0F0BD0F
:102F40004169164601323CD0490512D47EB300BF18
:102F5000FEF79AFB411B2068B14203D94169394011
:102F6000B9422BD141693940B942E6D0416949059E
:102F7000EED5016841F4007101606FF48061416138
:102F8000042000212022216384F83D2084F83E1093
:102F9000226C1043206484F83C10012001B0F0BD85
:102FA00041693940B942C8D041694905E1D4FEF7C9
:102FB0006BFB206841693940B942F1D02020E0E73D
:102FC00041694905D5D441693940B942B5D0416913
:102FD0004905CED441693940B942AED0416949056D
:102FE000C7D441693940B942A7D041694905C0D425
:102FF00041693940B942E3D19FE7000070B50368E9
:10300000044653F8140F000611D40E46481C29D06C
:1030100086BB00BF1868400527D4FEF735FB236840
:1030200053F8140F000637D518680006F2D50020B3
:1030300070BD00BF18680006F9D41868400514D4A4
:1030400018680006F3D4186840050ED41868000606
:10305000EDD41868400508D4186800064FF0000049
:1030600048BF70BD18684005E4D56FF480601860F3
:10307000042012E0154603E053F8140F0006D6D4DE
:1030800018684005F1D4FEF7FFFA401B2368B042F0
:10309000F2D958690006EFD42020002120222163B4
:1030A00084F83D2084F83E10226C104320640120F7
:1030B00084F83C1070BD0000FEE70000FEE7000051
:1030C000704700007047000070470000FEF7B8BC72
:1030D00070470000FEE7000070B582B03220FEF7B6
:1030E000ABF940F2D40443F63C06C2F20004C0F649
:1030F0000C06642501AA20464E2104230196009562
:10310000FEF77AFB0520FEF797F901AA20464E212B
:10311000042301960095FEF76FFB0120FEF78CF962
:1031200001AA20464E21042301960095FEF764FB78
:103130000A20FEF781F942F62C00C0F60C0001903F
:1031400001AA20464E2104230095FEF755FB0A20D4
:10315000FEF772F942F62C00C8F68C00019001AA25
:1031600020464E2104230095FEF746FB0120FEF782
:1031700063F940F60C00C8F68C00019001AA2046C5
:103180004E2104230095FEF737FB0120FEF754F98A
:1031900040F60C00C1F61C00019001AA20464E2109
:1031A00004230095FEF728FB0220FEF745F940F6C0
:1031B0000C00C6F66C00019001AA20464E210423A3
:1031C0000095FEF719FB0120FEF736F940F60C00DA
:1031D000CCF6CC00019001AA20464E210423009594
:1031E000FEF70AFB0120FEF727F902B070BD0000D0
:1031F00080B584B001281BD0C8BB01F07000090164
:1032000000F18C0288308DF8090001F10C008DF876
:103210000A0001F108008DF80B0040F2D4008DF88F
:1032200008204FF0640CC2F2000002AA19E000BFAF
:1032300001F03000090100F1CC02C8308DF80D001A
:1032400001F10C008DF80E0001F108008DF80F005F
:1032500040F2D4008DF80C204FF0640CC2F2000054
:1032600003AA4E210423CDF800C0FEF7C5FA04B02E
:1032700080BD000080B582B000F0F001000101F1D6
:103280000C0208318DF8051000F10C0108308DF8A2
:10329000070040F2D4008DF804208DF806104FF09E
:1032A000640CC2F2000001AA4E210423CDF800C034
:1032B000FEF7A2FA02B080BD0178002908BF70476E
:1032C000F0B583B040F2D404461E6427C2F2000475
:1032D00002AD00BF21F00F00090100F10D0209301D
:1032E0008DF8090001F10D008DF80A0001F10900C7
:1032F0008DF808208DF80B0020464E212A46042325
:103300000097FEF779FAB17801360029E2D103B0CF
:10331000BDE8F04070470000A6B0FEF79FFB002418
:103320000120CDE91944CDE91744189010201990D7
:103330004FF4601002251D9014A8CDE91544119496
:10334000CDE90F441495CDE91B54FEF73BFE28B19F
:10335000EFF3108072B600BFFEE700BF0F20CDE98B
:103360001E054FF48060CDE921041EA8022120949F
:10337000FEF722FD20B1EFF3108072B6FEE700BF2A
:103380004FF40040022510900EA80E95FEF792FC17
:1033900020B1EFF3108072B6FEE700BF002441F2C7
:1033A0001800CDE91644CDE91444C4F202000168C6
:1033B00040F6004941F0100101600168C4F20109C2
:1033C00001F010011E911E99016809F5806A41F013
:1033D000200101600168002201F020011E911E9968
:1033E00001684FF4005641F004010160016801F0EA
:1033F00004011E911E99016841F0080101600068F6
:103400004FF4005100F008001E901E985046FEF741
:1034100035F948464FF6030100224FF60308FEF740
:103420002DF9149614AE012750463146CDE9157496
:103430001795FEF715F80C2014A9A9F5806B31C17A
:1034400058463146FEF70CF848463146CDE9148718
:10345000CDE91645FEF704F840F27805C2F2000502
:1034600009F5C051284640F82C1F4FF46021047321
:103470000475C161C0E901440761FDF75FFD28B132
:10348000EFF3108072B600BFFEE700BF06202C35B8
:10349000169014A92846CDE91447FDF7ABFC28B1D6
:1034A000EFF3108072B600BFFEE700BF40F2D40019
:1034B000A9F53841C2F2000048F2A06200244FF49E
:1034C0008043C0F2010280E81600C0E90343C0E96E
:1034D0000544C0E90744FEF7DDF828B1EFF310809A
:1034E00072B600BFFEE700BF40F2281009F5005198
:1034F000C2F200004FF6FF72CDE90E441A94C0E903
:103500000014C0E90242C0E904448461FFF732F9C3
:1035100020B1EFF3108072B6FEE700BF40F2281032
:10352000C2F200000EA9FEF789FF28B1EFF3108068
:1035300072B600BFFEE700BF60201E9040F2281068
:103540000024C2F200001EA90022CDE91F44CDE9EB
:103550002144CDE92344FFF70BF828B1EFF31080A5
:1035600072B600BFFEE700BF4FF40050199040F262
:103570002810C2F2000014A91894CDE91644CDE930
:1035800014441B94FEF734FF20B1EFF3108072B6A1
:10359000FEE700BF40F22810C2F200000A95CDE914
:1035A00008BAFEF78BFF40F270100021C2F2000053
:1035B0004FF080424FF6FF73CDE91E11CDE919118E
:1035C000CDE91711C0E90021C0E902130161816151
:1035D000FFF7D0F820B1EFF3108072B6FEE700BF1E
:1035E00040F27010C2F200001EA9FEF727FF18B1CA
:1035F000EFF3108072B6FEE76020149040F2701076
:103600000024C2F2000014A90822CDE91544189440
:10361000FEF7AEFF20B1EFF3108072B6FEE700BFF9
:1036200040F27010C2F20000FEF748FF40F6004082
:10363000C4F2010000F5305140F2B810C2F20000AF
:103640000C234FF4E13280E81600C0E90344C0E9DE
:103650000534C461FFF7A4F920B1EFF3108072B60E
:10366000FEE700BF0A98FDF737FBFFF735FD0020A6
:103670000021FFF7BDFD0FF25850FFF71DFE01209E
:103680000021FFF7B5FD0FF25850FFF715FE4FF47C
:10369000FA60FDF7D1FE0120FFF7ECFD40F270105B
:1036A000C2F200000821FFF70DF940F60044C4F211
:1036B0000104204601210122FDF7E0FF20460221FE
:1036C0000022FDF7DBFF20464FF400610022FDF7EA
:1036D000D5FFDFF81C050DF1540C14900FF21050BB
:1036E000D0E90565071DC0698ECFCDE9196514AE17
:1036F0001B9030468CE88E00FCF78EFE82B240F2C2
:10370000B810C2F2000031464FF47A73FFF7FAF9AD
:1037100040F2000940F278040DF17808C2F2000985
:10372000C2F20004BBE000BF44F25310C4F24650A2
:103730000024CAF8180028464FF4004101228AF8F4
:103740001C40FDF79BFF28464FF480410022FDF707
:1037500095FF28464FF480510022FDF78FFF284641
:103760004FF400510022FDF789FF28464FF4006115
:103770000022FDF783FF38464FF400510122FDF788
:103780007DFF40F27012C2F200021068C463D9E9F2
:10379000000500F065FECDE90C10284600F060FE43
:1037A0000AF1080A0B909AE881040E4600F058FED0
:1037B000804638468B4600F053FE074650464D463D
:1037C000894600F04DFE0C460B99CDE90479A946D7
:1037D00040F20025C2F20005DDE90C328DE8420915
:1037E000069028460FF228410794FCF713FD82B299
:1037F00040F2B810C2F2000029464FF47A73FFF786
:1038000081F9D9E9000400F02BFE054620460E465A
:1038100000F026FE0DF1780807460C4640460FF2F0
:1038200024412A463346CDE90074FCF7F3FC40F20C
:103830007806C2F20006306900F012FE0EAC0346B4
:103840000F4606F1180220460FF20841CDE9003775
:10385000FCF7E0FC00200021FFF7CAFC44F62245FB
:10386000C0F600052846FFF727FD00200021FFF7DE
:10387000BFFC4046FFF720FD01200021FFF7B8FC08
:103880002846FFF719FD01200021FFF7B1FC204673
:10389000FFF712FD4FF47A70FDF7CEFD34460A9D16
:1038A00000201E9001260627284641461F96209795
:1038B000FDF7A0FA2846FDF757FD28466421FDF7DD
:1038C0001BFC2846FDF736FB608028464146CDE9C3
:1038D0001E662097FDF78EFA2846FDF745FD28461F
:1038E0006421FDF709FC2846FDF724FB06466088A5
:1038F000A68000F06FFF4FF20005C4F27F55294605
:1039000000F072FE0027C4F2C827394600F0DEFF3F
:10391000A060B0B200F05EFF294600F065FE3946B7
:1039200000F0D4FFE06008980421FDF7A1FE804676
:103930002070D9E900064CF6CD41C3F6CC5100F019
:10394000BBFD0021C4F22021834600F025FE49F68C
:103950009A15C3F699650028304629461CBF40F2E7
:10396000000BC4F2C01BC9F800B000F0A5FD002197
:10397000C4F2AA21064600F00FFE00210028584696
:10398000C4F2C8111CBF0026C4F25C26C9F804604A
:1039900000F010FE4FF00006B0B900215846C4F206
:1039A000202100F000FE3E4670B900215846CCF2BE
:1039B000C81100F081FD0021C4F2701100F014FE66
:1039C000394600F083FF0646D4E90270294600F02C
:1039D0007DFF4CF6CD4105463846C3F6CC61A24684
:1039E00000F074FF294600F067FD4CF6CD41054616
:1039F0003046C3F64C6100F069FF294600F05CFDDB
:103A00000146B8F1000F1CBF40F20008C4F22018B4
:103A1000404600F051FD0021C4F2F011064620613D
:103A200000F0C1FD40F60045099F0028C4F20105E1
:103A30003FF47AAE00213046C4F2702100F0B3FDAD
:103A4000D0BB40F2780A44F6496044F25711C2F202
:103A5000000AC0F24700C4F65261CAE906102846BF
:103A60004FF400410122FDF709FE28464FF4804142
:103A70000022FDF703FE28464FF480510022FDF797
:103A8000FDFD28464FF400510022FDF7F7FD2846C2
:103A90004FF400610022FDF7F1FD38464FF400516C
:103AA0000022FDF7EBFD40F27012C2F20002D06876
:103AB000C0EB0010400083E000213046C4F2A0219A
:103AC00000F071FD40F2780AC2F2000A00283FD1EE
:103AD00044F24750C0F25200CAF81B0044F24410AE
:103AE000C4F24E70CAF8180028464FF40041002274
:103AF000FDF7C4FD28464FF480410122FDF7BEFDCD
:103B000028464FF480510122FDF7B8FD28464FF4B6
:103B100000610022FDF7B2FD38464FF4005100224B
:103B2000FDF7ACFD28464FF400510122FDF7A6FD3C
:103B30006420FDF781FC28464FF400510022FDF778
:103B40009DFD40F27012C2F20002D068462136E0BC
:103B500000208AF8200044F2493045F24321C4F69F
:103B60004140C5F24941CAE9061028464FF40041D8
:103B70000022FDF783FD28464FF480410122FDF726
:103B80007DFD28464FF480510122FDF777FD284640
:103B90004FF400510122FDF771FD28464FF40061FA
:103BA0000122FDF76BFD38464FF400510022FDF76E
:103BB00065FD40F27012C2F20002D06864214843F1
:103BC00048F21F51C5F2EB11A0FB01014C09DCE5E5
:103BD000534D4152542053544F5241474500000029
:103BE00053595354454D205245414459000000005B
:103BF000534D4152542053544F524147452053593D
:103C00005354454D2052454144590D0A00000000CF
:103C100054454D503D252E31662048554D3D252EAD
:103C20003166204D4F4953543D252E316620434F78
:103C3000323D252E316620435352493D252E3166B3
:103C40000D0A0000543A252E316620483A252E30C0
:103C500066252500252D377320433A252E30660032
:103C60005FEA400C08BF91F0000F4FEA8C234FEA47
:103C7000C12243EA51514FEA1C5018BF00F5F040F1
:103C80004FEA300018BF41F000415FEA6C5C00F081
:103C90002980BCF1FF3F08BF40F080407047130C03
:103CA00006BF12044FF0100C4FF0000C130E04BFAF
:103CB00012020CF1080C130F04BF12010CF1040CDA
:103CC000930F04BF92000CF1020CD30F04BF5200FB
:103CD0000CF1010C11464FF00002A0F11F00A0EB07
:103CE0000C00704711F0004F08BF704731F00041E1
:103CF0003FF4D5AF0B0C06BF09044FF0100C4FF08A
:103D0000000C0B0E04BF09020CF1080C0B0F04BFD2
:103D100009010CF1040C8B0F04BF89000CF1020C9B
:103D2000CB0F04BF49000CF1010CCCF1200322FAA7
:103D300003F341EA030102FA0CF2A0EB0C0000F1DC
:103D40000100704723F07F4720F07F4C80EA03009A
:103D500000F00040ACEB070303F57C5303F1FF03D5
:103D60002DE9804909B44FEA144324EA03484FEA95
:103D7000154B25EA0B4E0FF2042606EB13273E786F
:103D800003FB0667C7F5000707FB06F64FEAD646B2
:103D900006F102064FEA543707FB066CCCF1005CD3
:103DA0004FEA1C472CEA074C0CFB06F507FB06F410
:103DB00004EB15464FEA961649085FEA320234BF13
:103DC00000204FF000404FEAD13706FB07FC4FEAD6
:103DD0001C4C0CFB0BF7D21B03FB0CF761EB070130
:103DE0000CFB0EF7B0EB074072EB17420CFB08F729
:103DF00034BFA2EB0742B2EB074261EB17414FEA37
:103E00000C444FEA910706FB07FC4FEA1C4C0CFBE5
:103E10000BF7B0EBC74072EB573203FB0CF734BF24
:103E2000A2EBC742B2EBC74261EB57310CFB0EF776
:103E3000B0EBC70072EB57720CFB08F734BFA2EB74
:103E4000C702B2EBC70261EB57714FEA816141EAE9
:103E500092114FEA826242EA90124FEA806004EBCC
:103E6000CC04039F4FEAD13706FB07FC4FEA1C4CFA
:103E70000CFB0BF7D21B03FB0CF761EB07010CFBF0
:103E80000EF7B0EB074072EB17420CFB08F734BF9C
:103E9000A2EB0742B2EB074261EB17414FEA8C55A8
:103EA00004EB9C244FEA910706FB07FC4FEA1C4CED
:103EB0000CFB0BF7B0EBC74072EB573203FB0CF770
:103EC00034BFA2EBC742B2EBC74261EB57310CFBE8
:103ED0000EF7B0EBC70072EB57720CFB08F734BF5C
:103EE000A2EBC702B2EBC70261EB57714FEA8161E7
:103EF00041EA92114FEA826242EA90124FEA8060F0
:103F000015EB4C2544F100044FEAD13706FB07FCC2
:103F10004FEA1C4C0CFB0BF7D21B03FB0CF761EBBD
:103F200007010CFB0EF7B0EB074072EB17420CFBDE
:103F300008F734BFA2EB0742B2EB074261EB17412F
:103F40004FEA813141EA92414FEA823242EA90429D
:103F50004FEA80304FEA0C7615EB1C1544F1000453
:103F600048EA03434EEA0B484FF0000EB2EB080C50
:103F700071EB030724BF624639464EEB0E0E4FF03D
:103F8000000B0018524149414BEB0B0BB2EB080CF4
:103F900071EB03077BF1000B24BF624639464EEB01
:103FA0000E0E4FF0000B0018524149414BEB0B0B2A
:103FB000B2EB080C71EB03077BF1000B24BF6246E8
:103FC00039464EEB0E0E51EA020718BF46F00106C5
:103FD00016EB0E7655F1000254F1000103D5BDE851
:103FE0008901BDE80088BDE88901BDE80048B6192F
:103FF000524141EB0101A3F10103704780807F7EB4
:104000007D7C7B7A7978777676757473727171704E
:104010006F6E6E6D6C6C6B6A6A6968686766666500
:104020006464636362616160605F5F5E5E5D5D5C8E
:104030005C5B5B5A5A5959585857575656555555FF
:104040005454535352525251515050504F4F4F4E5F
:104050004E4D4D4D4C4C4C4B4B4B4A4A4A494949AD
:1040600048484847474747464646454545444444EF
:104070004443434343424242424141419C46002B18
:1040800030D477002BD04FEA37071CB503B44FF07C
:1040900010004FF01001BAF1000F06D0BCF1000F74
:1040A000DCBF40F0080040F008014FF000000FBCFA
:1040B000BDE810400BF1010BBBF1010F08BF5FEA37
:1040C000170722BF12F1010211F101014FF0004167
:1040D00043F1000300F0004043EA00007047F9D3C9
:1040E0005708D0E746EA06464FEA164613F1400F56
:1040F0001FDD13F1200FDFBF16430A4600212033D6
:104100005B42BED0C3F1200746EA06464FEA164698
:1041100002FA07F746EA070622FA03F2C3F120077C
:1041200001FA07F742EA070221FA03F14FF0000310
:10413000A7E746EA020646EA06464FEA164646EA78
:104140000106BCBF46EA0646360C4FF000034FF0AE
:1041500000024FF0000194E72DE9804C70B49A46BC
:10416000934691E8380007C831EA400C48BF34EA6A
:10417000430C03D5FFF7E6FDFFF780FFF0BCBDE879
:10418000008C2DE9804C70B49A46934691E8380033
:1041900007C810F0804F08BF13F0804F03D100F024
:1041A00005F8FFF76BFFF0BCBDE8008C20F07F47FF
:1041B00023F07F4C80EA030000F0004007EB0C0383
:1041C000A3F57C53A3F1FE0392F0000F00F0B3803F
:1041D00095F0000F00F077802DE901494FEA11407A
:1041E00021EA00484FEA144624EA064700FB06FC91
:1041F00008FB06F607FB08F818EB06484CEB164CD4
:1042000000FB07F718EB07484CEB17404FEA124B3F
:1042100022EA0B4E4FEA154625EA06470BFB06FC41
:104220000EFB06F607FB0EFE1EEB064E4CEB164C85
:104230000BFB07F71EEB074E4CEB174B18EB0B086D
:1042400040F1000018EB0E0B58EB000840F10000A5
:104250008F1A4FF000014FF000063CBFC943661BA8
:1042600014BFB5EB040C00213CBFC943F61B4FEA59
:10427000174427EA04454FEA1C472CEA074C04FB85
:10428000076205FB07F70CFB05F616EB074642EB4A
:10429000174204FB0CFC16EB0C4642EB1C421BEBDA
:1042A000060658EB020241414EEA8E0E46EA9E0691
:1042B00001D5BDE80189B619524141EB0101A3F1D5
:1042C0000103BDE801894FEA144524EA05464FEA97
:1042D000114721EA074C05FB07F406FB07F70CFB27
:1042E00006F111EB074144EB174405FB0CFC11EB05
:1042F0000C4144EB1C444FEA124722EA074C05FBF1
:1043000007F206FB07F70CFB06F616EB074642EB37
:10431000174205FB0CFC16EB0C4642EB1C456A18D9
:1043200054F1000148BF7047B619524141EB0101F9
:10433000A3F10103704795F0000F37D04FEA114207
:1043400021EA02464FEA144724EA074C02FB07F130
:1043500006FB07F70CFB06F414EB074441EB17418F
:1043600002FB0CFC14EB0C4441EB1C414FEA1547DB
:1043700025EA074C02FB07F506FB07F70CFB06F6E0
:1043800016EB074645EB174502FB0CFC16EB0C46FB
:1043900045EB1C42121951F1000148BF7047B61994
:1043A000524141EB0101A3F1010370474FEA14456B
:1043B00024EA05464FEA114721EA074C05FB07F1BD
:1043C00006FB07F70CFB06F212EB074241EB174125
:1043D00005FB0CFC12EB0C4251EB1C414FF00006AC
:1043E00048BF7047921841EB0101A3F101037047E8
:1043F000490050EAC12018BF04204A0D18BF40F000
:10440000010040F2FF72B2EB515F08BF40F00200C2
:10441000012808BF0520704730380A2801D2012042
:10442000704700207047000010B500290AD00878B6
:10443000002807D005487844FCF780FB002801D00D
:10444000002010BD0248784410BD00001E08000086
:10445000160800000808A0F500114FEA3101704766
:1044600043004FEAD30C4FEA3C0C43401FBF4007C8
:104470000CF1605113F0FE4F70471CF0006F03D138
:104480000CF00041002070470CF0004343EA5070EC
:1044900040EACC0010B500F09AFA00BF000000928C
:1044A0004FEA0001FFF7D6BF4FF00041A1F5002110
:1044B0004FF000007047000090EA010F48BF81F004
:1044C000004100F1D682421A3CBF801A89184FEA97
:1044D000D052A2EBD1534FF07F4C1CEA410F18BFD2
:1044E0009CEA026F00F03B804FF0004C4CEA002049
:1044F0004CEA012121FA03FC10EB0C0C1ED202F154
:10450000FF325FEA1C2040EBC25038BF70471CF0FE
:104510007F0F4FEA400C18BFBCF17F4F38BF704788
:10452000C3F12003994008BF20F00100BCF17F4F88
:1045300038BF7047A0F1C04000F08FBA4FEA3C008E
:10454000000A40EBC25028BF1CF0FF0F4FEA400C9E
:10455000E6D018BFBCF17F4F38BF7047EAE79CEA4E
:10456000026F05D010EA5C0F08BF00F000407047F2
:1045700010B500F02CFA00BF64FBBE3E10B500F091
:10458000F5F80CBF0120002010BD10B500F0EEF8CA
:1045900014BF0120002010BD10B500F02FF98CBF12
:1045A0000120002010BD10B500F028F92CBF01201B
:1045B000002010BD10B500F055F994BF0120002077
:1045C00010BD10B500F04EF934BF0120002010BD21
:1045D000401058BFC0F14040491058BFC1F14041A0
:1045E0008142EFF3008070474FF47F0C1CEAD01239
:1045F0001EBF1CEAD11392EA0C0F93EA0C0F00F0D5
:10460000858090EA010F48BF42F4807240F4000CAC
:1046100041F400002CF07F4120F07F4000B5A2EB78
:10462000030281420FF2081CACEB504E9EF800E0F2
:10463000C0F100004FEA4E0E00FB0EFC38BF4900EF
:104640004FEA2C1C0CFB0EF34FEACE1E0EEB635E02
:104650004FEA112C0EFB0CFC4FEAC1214FEA1C5310
:1046600000FB031102F5FA024FEA112C0EFB0CFCC1
:104670004FEA01314FEADC4C00FB0C1142EB2242C5
:10468000C14228BF09184CEB03335DF804EB10EB73
:10469000410143EBC250B2F57C0F38BF704729D5BA
:1046A00012F0F00F1CBF00F1C04000F00040704756
:1046B000008182838485868788898B8C8D8E8F91FB
:1046C0009293959697999A9C9D9FA0A2A3A5A7A81F
:1046D000AAACAEB0B2B3B5B7B9BCBEC0C2C5C7C94B
:1046E000CCCED1D4D7D9DCDFE2E6E9ECF0F3F7FAAF
:1046F000FE0000004FEA400C0CF1807CBCF17E4FC4
:1047000028BF7047B0F1C04000F0A7B90CEAD11340
:1047100090EA010F48BF42F48072624538BF63459A
:1047200007D213F47F0F16D080EA010000F000409A
:10473000704710B500F04BF9097EFC3E00F005B85B
:1047400080EA010000F00040704780EA010000F0BC
:10475000004000F082B912F47F0F04BF0248704796
:1047600080EA010000F079B90000C07F50EA010C36
:1047700000F113801CF5000F58BFBCF5000F01D4E9
:104780008842704707D710F5000F58BF11F5000F8A
:1047900015D488427047894270471CF5000F04D534
:1047A000BCF5000FF7D5814270474FF0807C1CEBC1
:1047B000400F38BF1CEB410F01D28142704710B54A
:1047C00000F005F9922449004FF000504FF080515D
:1047D000FFF7FEBEB0FA80F310FA03F2C3F19D03B7
:1047E0000AD0D90501EB1220530638BF704700F1FB
:1047F000010008BF20F001007047000050EA010CE2
:1048000000F113801CF5000F58BFBCF5000F01D458
:104810008842704707D710F5000F58BF11F5000FF9
:1048200015D488427047894270471CF5000F04D5A3
:10483000BCF5000FF7D5814270474FF0807C1CEB30
:10484000400F38BF1CEB410F01D28142704710B5B9
:1048500000F0BDF8922449004FF080504FF0005115
:10486000FFF7B6BE50EA010C00F113801CF5000FF3
:1048700058BFBCF5000F01D48842704707D710F528
:10488000000F58BF11F5000F15D4884270478942B8
:1048900070471CF5000F04D5BCF5000FF7D5814219
:1048A00070474FF0807C1CEB400F38BF1CEB410F72
:1048B00001D28142704710B500F089F89224490076
:1048C0004FF000504FF08051FFF782BE4FF47F0C45
:1048D0001CEAD0121EBF1CEAD11392EA0C0F93EA15
:1048E0000C0F00F0478090EA010F48BF42F480723D
:1048F0004FF0004C4CEA00204CEA012102EB03028D
:10490000A0FB0113A2F50002002918BF43F0010328
:104910005B0028BF4FEA330342EB22425FEA132CCD
:104920004CEBC2502EBFBCEB436FB2F57C0F70470F
:104930004FEA036CBCF1004F08BF20F00100B2F554
:104940007C0F38BF70470BD582F0FF0212F5803F15
:10495000C8BF704700F1C040D8BF00F000407047AA
:1049600000F5000C5FEA4C0C48BF7047B0F1C04046
:1049700000F073B80CEAD11390EA010F48BF42F47B
:104980008072624538BF634504D280EA010000F0BE
:104990000040704710B500F01AF800BF8900013ED2
:1049A00000F007B800F009B85FEA410C5FEA1C6C40
:1049B00008D080EA010000F050B85FEA400C5FEADE
:1049C0001C6CF6D14FF00040A0F5800070470EF14E
:1049D000020E2EF0030E5EF8044B244204D44FEA7C
:1049E0004102B2F17F4F11D84FEA4003B3F17F4F3C
:1049F0000CD80ED14FEAD07C0CEB4C0C0CF1020C15
:104A0000B2F17F4F08BF4CEBD17C04E04FF0080CB3
:104A100001E04FEAD17C0CEB4C0324FA03F404F0E0
:104A20000704B4F1040C06D20EEB840CBDE8104070
:104A30004CF0010C6047DFE80CF0070802024FF071
:104A40000040A0F5800010BD0846420018BFD2F11A
:104A5000807288BF00F0004010BDFF2141EAD050B5
:104A6000C005704790EA010F48BF81F000413FF553
:104A70002AAD421A04D882F00042A0EB0200114491
:104A80004FEAD052A2EBD1534FF07F4C1CEA410FBA
:104A900018BF9CEA026F4AD04FF0004C4CEA00204D
:104AA0004CEA012121FA03FCB0EB0C0C0FD412F0FC
:104AB000FE0F36D05FEA4C001DD5001240EBC2500D
:104AC00038BF70471CF03F0F18BF70470BE05FEA1C
:104AD0001C20A2F1010240EBC25038BF70471CF00D
:104AE0007F0F18BF7047C3F12003994014BF401EC9
:104AF00020F0010070474FEA1223800808BF70477A
:104B0000B0FA80FCA2EB0C02CCF1280C60FA0CF09D
:104B100093EA122F04BF00EBC25070474FEAC370F4
:104B20007047130A5FEADC1008BF7047F6E79CEA9B
:104B3000026F04D010EA5C0F08BF0020704710B568
:104B4000FFF745FF40DFF63E81F000407047FBF77E
:104B50005DBD04000008000000000000000200012C
:104B60000000100002400000000000A00000000053
:104B700005400000000000C8000000000C400000DC
:104B80000000409C00000000194000000020BCBE56
:104B90000000000034400000BFC91B8E000000046C
:104BA000B5400000504BCFD06607E2CF01000000B7
:104BB0006C4100003E8251AADFEEA73401000000E4
:104BC000D9420000DCB5A0E23A301F97FFFFFFFF9B
:104BD000B4450000FD25A0C8E9A3C14FFFFFFFFFBA
:104BE000FF3F00000000008000000000FF3F0000C9
:104BF0000000008000000000000000000000000035
:104C00000102030406070809000000000102030472
:104C1000010202030405060708090A0B0C0D0E0F1A
:104C200010102020202020202020202020202020A4
:104C300020200000704C0008000000201800000038
:104C400050010008884C000818000020700800007F
:104C5000700100081C00000043000000F8FFFFFF87
:104C60000C0000000E0000000F0000002E000000ED
:104C70000000C84100007042010000001000000068
:084C800000127A0000000000A0
:04000005080000ED02
:00000001FF
